{
  "_format": "hh-sol-artifact-1",
  "contractName": "CredentialIndex",
  "sourceName": "contracts/CredentialIndex.sol",
  "abi": [
    {
      "anonymous": false,
      "inputs": [
        {
          "indexed": false,
          "internalType": "string",
          "name": "name",
          "type": "string"
        },
        {
          "indexed": false,
          "internalType": "string",
          "name": "description",
          "type": "string"
        },
        {
          "indexed": false,
          "internalType": "address",
          "name": "user",
          "type": "address"
        }
      ],
      "name": "CredentialAdded",
      "type": "event"
    },
    {
      "inputs": [
        {
          "internalType": "string",
          "name": "_name",
          "type": "string"
        },
        {
          "internalType": "string",
          "name": "_description",
          "type": "string"
        }
      ],
      "name": "addCredential",
      "outputs": [],
      "stateMutability": "nonpayable",
      "type": "function"
    },
    {
      "inputs": [
        {
          "internalType": "uint256",
          "name": "",
          "type": "uint256"
        }
      ],
      "name": "credentials",
      "outputs": [
        {
          "internalType": "string",
          "name": "name",
          "type": "string"
        },
        {
          "internalType": "string",
          "name": "description",
          "type": "string"
        },
        {
          "internalType": "address",
          "name": "user",
          "type": "address"
        }
      ],
      "stateMutability": "view",
      "type": "function"
    },
    {
      "inputs": [],
      "name": "getAllCredentials",
      "outputs": [
        {
          "components": [
            {
              "internalType": "string",
              "name": "name",
              "type": "string"
            },
            {
              "internalType": "string",
              "name": "description",
              "type": "string"
            },
            {
              "internalType": "address",
              "name": "user",
              "type": "address"
            }
          ],
          "internalType": "struct CredentialIndex.Credential[]",
          "name": "",
          "type": "tuple[]"
        }
      ],
      "stateMutability": "view",
      "type": "function"
    }
  ],
  "bytecode": "0x608060405234801561001057600080fd5b50610ce7806100206000396000f3fe608060405234801561001057600080fd5b50600436106100415760003560e01c80634ee885d8146100465780637fd615c214610062578063e0574e3f14610080575b600080fd5b610060600480360381019061005b919061065f565b6100b2565b005b61006a6101c2565b60405161007791906108b0565b60405180910390f35b61009a60048036038101906100959190610908565b61039b565b6040516100a99392919061098e565b60405180910390f35b600060405180606001604052808481526020018381526020013373ffffffffffffffffffffffffffffffffffffffff16815250908060018154018082558091505060019003906000526020600020906003020160009091909190915060008201518160000190816101239190610bdf565b5060208201518160010190816101399190610bdf565b5060408201518160020160006101000a81548173ffffffffffffffffffffffffffffffffffffffff021916908373ffffffffffffffffffffffffffffffffffffffff16021790555050507f53a0ebecdec201f686ecfa90a83c7cf7b130e45c1822a9810b9bd6df7d8395038282336040516101b69392919061098e565b60405180910390a15050565b60606000805480602002602001604051908101604052809291908181526020016000905b82821015610392578382906000526020600020906003020160405180606001604052908160008201805461021990610a02565b80601f016020809104026020016040519081016040528092919081815260200182805461024590610a02565b80156102925780601f1061026757610100808354040283529160200191610292565b820191906000526020600020905b81548152906001019060200180831161027557829003601f168201915b505050505081526020016001820180546102ab90610a02565b80601f01602080910402602001604051908101604052809291908181526020018280546102d790610a02565b80156103245780601f106102f957610100808354040283529160200191610324565b820191906000526020600020905b81548152906001019060200180831161030757829003601f168201915b505050505081526020016002820160009054906101000a900473ffffffffffffffffffffffffffffffffffffffff1673ffffffffffffffffffffffffffffffffffffffff1673ffffffffffffffffffffffffffffffffffffffff1681525050815260200190600101906101e6565b50505050905090565b600081815481106103ab57600080fd5b90600052602060002090600302016000915090508060000180546103ce90610a02565b80601f01602080910402602001604051908101604052809291908181526020018280546103fa90610a02565b80156104475780601f1061041c57610100808354040283529160200191610447565b820191906000526020600020905b81548152906001019060200180831161042a57829003601f168201915b50505050509080600101805461045c90610a02565b80601f016020809104026020016040519081016040528092919081815260200182805461048890610a02565b80156104d55780601f106104aa576101008083540402835291602001916104d5565b820191906000526020600020905b8154815290600101906020018083116104b857829003601f168201915b5050505050908060020160009054906101000a900473ffffffffffffffffffffffffffffffffffffffff16905083565b6000604051905090565b600080fd5b600080fd5b600080fd5b600080fd5b6000601f19601f8301169050919050565b7f4e487b7100000000000000000000000000000000000000000000000000000000600052604160045260246000fd5b61056c82610523565b810181811067ffffffffffffffff8211171561058b5761058a610534565b5b80604052505050565b600061059e610505565b90506105aa8282610563565b919050565b600067ffffffffffffffff8211156105ca576105c9610534565b5b6105d382610523565b9050602081019050919050565b82818337600083830152505050565b60006106026105fd846105af565b610594565b90508281526020810184848401111561061e5761061d61051e565b5b6106298482856105e0565b509392505050565b600082601f83011261064657610645610519565b5b81356106568482602086016105ef565b91505092915050565b600080604083850312156106765761067561050f565b5b600083013567ffffffffffffffff81111561069457610693610514565b5b6106a085828601610631565b925050602083013567ffffffffffffffff8111156106c1576106c0610514565b5b6106cd85828601610631565b9150509250929050565b600081519050919050565b600082825260208201905092915050565b6000819050602082019050919050565b600081519050919050565b600082825260208201905092915050565b60005b8381101561073d578082015181840152602081019050610722565b60008484015250505050565b600061075482610703565b61075e818561070e565b935061076e81856020860161071f565b61077781610523565b840191505092915050565b600073ffffffffffffffffffffffffffffffffffffffff82169050919050565b60006107ad82610782565b9050919050565b6107bd816107a2565b82525050565b600060608301600083015184820360008601526107e08282610749565b915050602083015184820360208601526107fa8282610749565b915050604083015161080f60408601826107b4565b508091505092915050565b600061082683836107c3565b905092915050565b6000602082019050919050565b6000610846826106d7565b61085081856106e2565b935083602082028501610862856106f3565b8060005b8581101561089e578484038952815161087f858261081a565b945061088a8361082e565b925060208a01995050600181019050610866565b50829750879550505050505092915050565b600060208201905081810360008301526108ca818461083b565b905092915050565b6000819050919050565b6108e5816108d2565b81146108f057600080fd5b50565b600081359050610902816108dc565b92915050565b60006020828403121561091e5761091d61050f565b5b600061092c848285016108f3565b91505092915050565b600082825260208201905092915050565b600061095182610703565b61095b8185610935565b935061096b81856020860161071f565b61097481610523565b840191505092915050565b610988816107a2565b82525050565b600060608201905081810360008301526109a88186610946565b905081810360208301526109bc8185610946565b90506109cb604083018461097f565b949350505050565b7f4e487b7100000000000000000000000000000000000000000000000000000000600052602260045260246000fd5b60006002820490506001821680610a1a57607f821691505b602082108103610a2d57610a2c6109d3565b5b50919050565b60008190508160005260206000209050919050565b60006020601f8301049050919050565b600082821b905092915050565b600060088302610a957fffffffffffffffffffffffffffffffffffffffffffffffffffffffffffffffff82610a58565b610a9f8683610a58565b95508019841693508086168417925050509392505050565b6000819050919050565b6000610adc610ad7610ad2846108d2565b610ab7565b6108d2565b9050919050565b6000819050919050565b610af683610ac1565b610b0a610b0282610ae3565b848454610a65565b825550505050565b600090565b610b1f610b12565b610b2a818484610aed565b505050565b5b81811015610b4e57610b43600082610b17565b600181019050610b30565b5050565b601f821115610b9357610b6481610a33565b610b6d84610a48565b81016020851015610b7c578190505b610b90610b8885610a48565b830182610b2f565b50505b505050565b600082821c905092915050565b6000610bb660001984600802610b98565b1980831691505092915050565b6000610bcf8383610ba5565b9150826002028217905092915050565b610be882610703565b67ffffffffffffffff811115610c0157610c00610534565b5b610c0b8254610a02565b610c16828285610b52565b600060209050601f831160018114610c495760008415610c37578287015190505b610c418582610bc3565b865550610ca9565b601f198416610c5786610a33565b60005b82811015610c7f57848901518255600182019150602085019450602081019050610c5a565b86831015610c9c5784890151610c98601f891682610ba5565b8355505b6001600288020188555050505b50505050505056fea264697066735822122052b49f2c7b3a61370401d8c857ae695271d91b26f9a859f187b399526a01013664736f6c63430008110033",
  "linkReferences": {},
  "deployedLinkReferences": {}
}