{
  "_format": "hh-sol-artifact-1",
  "contractName": "CredentialsManager",
  "sourceName": "contracts/CredentialsManager.sol",
  "abi": [
    {
      "anonymous": false,
      "inputs": [
        {
          "indexed": true,
          "internalType": "address",
          "name": "user",
          "type": "address"
        },
        {
          "indexed": false,
          "internalType": "string",
          "name": "name",
          "type": "string"
        },
        {
          "indexed": false,
          "internalType": "uint256",
          "name": "issuedAt",
          "type": "uint256"
        },
        {
          "indexed": false,
          "internalType": "uint256",
          "name": "expiry",
          "type": "uint256"
        }
      ],
      "name": "CredentialAdded",
      "type": "event"
    },
    {
      "anonymous": false,
      "inputs": [
        {
          "indexed": true,
          "internalType": "address",
          "name": "user",
          "type": "address"
        },
        {
          "indexed": false,
          "internalType": "uint256",
          "name": "credentialId",
          "type": "uint256"
        }
      ],
      "name": "CredentialRevoked",
      "type": "event"
    },
    {
      "anonymous": false,
      "inputs": [
        {
          "indexed": true,
          "internalType": "address",
          "name": "user",
          "type": "address"
        },
        {
          "indexed": false,
          "internalType": "uint256",
          "name": "credentialId",
          "type": "uint256"
        }
      ],
      "name": "CredentialVerified",
      "type": "event"
    },
    {
      "inputs": [
        {
          "internalType": "string",
          "name": "_name",
          "type": "string"
        },
        {
          "internalType": "string",
          "name": "_description",
          "type": "string"
        },
        {
          "internalType": "uint256",
          "name": "_expiry",
          "type": "uint256"
        }
      ],
      "name": "addCredential",
      "outputs": [],
      "stateMutability": "nonpayable",
      "type": "function"
    },
    {
      "inputs": [
        {
          "internalType": "address",
          "name": "_user",
          "type": "address"
        }
      ],
      "name": "getCredentials",
      "outputs": [
        {
          "components": [
            {
              "internalType": "string",
              "name": "name",
              "type": "string"
            },
            {
              "internalType": "string",
              "name": "description",
              "type": "string"
            },
            {
              "internalType": "uint256",
              "name": "issuedAt",
              "type": "uint256"
            },
            {
              "internalType": "uint256",
              "name": "expiry",
              "type": "uint256"
            },
            {
              "internalType": "bool",
              "name": "isVerified",
              "type": "bool"
            },
            {
              "internalType": "bool",
              "name": "isRevoked",
              "type": "bool"
            }
          ],
          "internalType": "struct CredentialsManager.Credential[]",
          "name": "",
          "type": "tuple[]"
        }
      ],
      "stateMutability": "view",
      "type": "function"
    },
    {
      "inputs": [
        {
          "internalType": "uint256",
          "name": "_credentialId",
          "type": "uint256"
        }
      ],
      "name": "revokeCredential",
      "outputs": [],
      "stateMutability": "nonpayable",
      "type": "function"
    },
    {
      "inputs": [
        {
          "internalType": "address",
          "name": "_user",
          "type": "address"
        },
        {
          "internalType": "uint256",
          "name": "_credentialId",
          "type": "uint256"
        }
      ],
      "name": "verifyCredential",
      "outputs": [],
      "stateMutability": "nonpayable",
      "type": "function"
    }
  ],
  "bytecode": "0x608060405234801561001057600080fd5b5061120f806100206000396000f3fe608060405234801561001057600080fd5b506004361061004c5760003560e01c80631330b61b146100515780631b87278d1461006d5780632b2b12c51461008957806384270608146100a5575b600080fd5b61006b6004803603810190610066919061084e565b6100d5565b005b6100876004803603810190610082919061088e565b61027c565b005b6100a3600480360381019061009e9190610a01565b610422565b005b6100bf60048036038101906100ba9190610a8c565b61059b565b6040516100cc9190610cb4565b60405180910390f35b6000808373ffffffffffffffffffffffffffffffffffffffff1673ffffffffffffffffffffffffffffffffffffffff168152602001908152602001600020805490508110610158576040517f08c379a000000000000000000000000000000000000000000000000000000000815260040161014f90610d33565b60405180910390fd5b60008060008473ffffffffffffffffffffffffffffffffffffffff1673ffffffffffffffffffffffffffffffffffffffff16815260200190815260200160002082815481106101aa576101a9610d53565b5b906000526020600020906005020190508060040160009054906101000a900460ff161561020c576040517f08c379a000000000000000000000000000000000000000000000000000000000815260040161020390610dce565b60405180910390fd5b60018160040160006101000a81548160ff0219169083151502179055508273ffffffffffffffffffffffffffffffffffffffff167f76fecaea507f64564a4e3139bdfcd27cede2a8b73f7d45cd830a984bea14d57e8360405161026f9190610dfd565b60405180910390a2505050565b6000803373ffffffffffffffffffffffffffffffffffffffff1673ffffffffffffffffffffffffffffffffffffffff1681526020019081526020016000208054905081106102ff576040517f08c379a00000000000000000000000000000000000000000000000000000000081526004016102f690610d33565b60405180910390fd5b60008060003373ffffffffffffffffffffffffffffffffffffffff1673ffffffffffffffffffffffffffffffffffffffff168152602001908152602001600020828154811061035157610350610d53565b5b906000526020600020906005020190508060040160019054906101000a900460ff16156103b3576040517f08c379a00000000000000000000000000000000000000000000000000000000081526004016103aa90610e64565b60405180910390fd5b60018160040160016101000a81548160ff0219169083151502179055503373ffffffffffffffffffffffffffffffffffffffff167ff2fcadf579f414e0330984b542cd6af76f79cc0213bfd8d53adf88364f1d2621836040516104169190610dfd565b60405180910390a25050565b60006040518060c001604052808581526020018481526020014281526020018381526020016000151581526020016000151581525090506000803373ffffffffffffffffffffffffffffffffffffffff1673ffffffffffffffffffffffffffffffffffffffff16815260200190815260200160002081908060018154018082558091505060019003906000526020600020906005020160009091909190915060008201518160000190816104d69190611090565b5060208201518160010190816104ec9190611090565b50604082015181600201556060820151816003015560808201518160040160006101000a81548160ff02191690831515021790555060a08201518160040160016101000a81548160ff02191690831515021790555050503373ffffffffffffffffffffffffffffffffffffffff167fcd759c03d2fdb70770b92e158c310f7f9c4dc67a66415240abff74ed03274f4185428560405161058d9392919061119b565b60405180910390a250505050565b60606000808373ffffffffffffffffffffffffffffffffffffffff1673ffffffffffffffffffffffffffffffffffffffff168152602001908152602001600020805480602002602001604051908101604052809291908181526020016000905b8282101561079b57838290600052602060002090600502016040518060c001604052908160008201805461062e90610eb3565b80601f016020809104026020016040519081016040528092919081815260200182805461065a90610eb3565b80156106a75780601f1061067c576101008083540402835291602001916106a7565b820191906000526020600020905b81548152906001019060200180831161068a57829003601f168201915b505050505081526020016001820180546106c090610eb3565b80601f01602080910402602001604051908101604052809291908181526020018280546106ec90610eb3565b80156107395780601f1061070e57610100808354040283529160200191610739565b820191906000526020600020905b81548152906001019060200180831161071c57829003601f168201915b5050505050815260200160028201548152602001600382015481526020016004820160009054906101000a900460ff161515151581526020016004820160019054906101000a900460ff161515151581525050815260200190600101906105fb565b505050509050919050565b6000604051905090565b600080fd5b600080fd5b600073ffffffffffffffffffffffffffffffffffffffff82169050919050565b60006107e5826107ba565b9050919050565b6107f5816107da565b811461080057600080fd5b50565b600081359050610812816107ec565b92915050565b6000819050919050565b61082b81610818565b811461083657600080fd5b50565b60008135905061084881610822565b92915050565b60008060408385031215610865576108646107b0565b5b600061087385828601610803565b925050602061088485828601610839565b9150509250929050565b6000602082840312156108a4576108a36107b0565b5b60006108b284828501610839565b91505092915050565b600080fd5b600080fd5b6000601f19601f8301169050919050565b7f4e487b7100000000000000000000000000000000000000000000000000000000600052604160045260246000fd5b61090e826108c5565b810181811067ffffffffffffffff8211171561092d5761092c6108d6565b5b80604052505050565b60006109406107a6565b905061094c8282610905565b919050565b600067ffffffffffffffff82111561096c5761096b6108d6565b5b610975826108c5565b9050602081019050919050565b82818337600083830152505050565b60006109a461099f84610951565b610936565b9050828152602081018484840111156109c0576109bf6108c0565b5b6109cb848285610982565b509392505050565b600082601f8301126109e8576109e76108bb565b5b81356109f8848260208601610991565b91505092915050565b600080600060608486031215610a1a57610a196107b0565b5b600084013567ffffffffffffffff811115610a3857610a376107b5565b5b610a44868287016109d3565b935050602084013567ffffffffffffffff811115610a6557610a646107b5565b5b610a71868287016109d3565b9250506040610a8286828701610839565b9150509250925092565b600060208284031215610aa257610aa16107b0565b5b6000610ab084828501610803565b91505092915050565b600081519050919050565b600082825260208201905092915050565b6000819050602082019050919050565b600081519050919050565b600082825260208201905092915050565b60005b83811015610b1f578082015181840152602081019050610b04565b60008484015250505050565b6000610b3682610ae5565b610b408185610af0565b9350610b50818560208601610b01565b610b59816108c5565b840191505092915050565b610b6d81610818565b82525050565b60008115159050919050565b610b8881610b73565b82525050565b600060c0830160008301518482036000860152610bab8282610b2b565b91505060208301518482036020860152610bc58282610b2b565b9150506040830151610bda6040860182610b64565b506060830151610bed6060860182610b64565b506080830151610c006080860182610b7f565b5060a0830151610c1360a0860182610b7f565b508091505092915050565b6000610c2a8383610b8e565b905092915050565b6000602082019050919050565b6000610c4a82610ab9565b610c548185610ac4565b935083602082028501610c6685610ad5565b8060005b85811015610ca25784840389528151610c838582610c1e565b9450610c8e83610c32565b925060208a01995050600181019050610c6a565b50829750879550505050505092915050565b60006020820190508181036000830152610cce8184610c3f565b905092915050565b600082825260208201905092915050565b7f496e76616c69642063726564656e7469616c2049440000000000000000000000600082015250565b6000610d1d601583610cd6565b9150610d2882610ce7565b602082019050919050565b60006020820190508181036000830152610d4c81610d10565b9050919050565b7f4e487b7100000000000000000000000000000000000000000000000000000000600052603260045260246000fd5b7f43726564656e7469616c20697320616c72656164792076657269666965640000600082015250565b6000610db8601e83610cd6565b9150610dc382610d82565b602082019050919050565b60006020820190508181036000830152610de781610dab565b9050919050565b610df781610818565b82525050565b6000602082019050610e126000830184610dee565b92915050565b7f43726564656e7469616c20697320616c7265616479207265766f6b6564000000600082015250565b6000610e4e601d83610cd6565b9150610e5982610e18565b602082019050919050565b60006020820190508181036000830152610e7d81610e41565b9050919050565b7f4e487b7100000000000000000000000000000000000000000000000000000000600052602260045260246000fd5b60006002820490506001821680610ecb57607f821691505b602082108103610ede57610edd610e84565b5b50919050565b60008190508160005260206000209050919050565b60006020601f8301049050919050565b600082821b905092915050565b600060088302610f467fffffffffffffffffffffffffffffffffffffffffffffffffffffffffffffffff82610f09565b610f508683610f09565b95508019841693508086168417925050509392505050565b6000819050919050565b6000610f8d610f88610f8384610818565b610f68565b610818565b9050919050565b6000819050919050565b610fa783610f72565b610fbb610fb382610f94565b848454610f16565b825550505050565b600090565b610fd0610fc3565b610fdb818484610f9e565b505050565b5b81811015610fff57610ff4600082610fc8565b600181019050610fe1565b5050565b601f8211156110445761101581610ee4565b61101e84610ef9565b8101602085101561102d578190505b61104161103985610ef9565b830182610fe0565b50505b505050565b600082821c905092915050565b600061106760001984600802611049565b1980831691505092915050565b60006110808383611056565b9150826002028217905092915050565b61109982610ae5565b67ffffffffffffffff8111156110b2576110b16108d6565b5b6110bc8254610eb3565b6110c7828285611003565b600060209050601f8311600181146110fa57600084156110e8578287015190505b6110f28582611074565b86555061115a565b601f19841661110886610ee4565b60005b828110156111305784890151825560018201915060208501945060208101905061110b565b8683101561114d5784890151611149601f891682611056565b8355505b6001600288020188555050505b505050505050565b600061116d82610ae5565b6111778185610cd6565b9350611187818560208601610b01565b611190816108c5565b840191505092915050565b600060608201905081810360008301526111b58186611162565b90506111c46020830185610dee565b6111d16040830184610dee565b94935050505056fea2646970667358221220d51bfabe06e97399ae938c35cbb21af36c9c8bb21debb26c66bbae7a851a9f6c64736f6c63430008110033",
  "linkReferences": {},
  "deployedLinkReferences": {}
}