{
  "_format": "hh-sol-artifact-1",
  "contractName": "CredentialsManager",
  "sourceName": "contracts/CredentialsManager.sol",
  "abi": [
    {
      "anonymous": false,
      "inputs": [
        {
          "indexed": true,
          "internalType": "address",
          "name": "user",
          "type": "address"
        },
        {
          "indexed": false,
          "internalType": "string",
          "name": "name",
          "type": "string"
        },
        {
          "indexed": false,
          "internalType": "string",
          "name": "description",
          "type": "string"
        },
        {
          "indexed": false,
          "internalType": "uint256",
          "name": "issuedAt",
          "type": "uint256"
        }
      ],
      "name": "CredentialAdded",
      "type": "event"
    },
    {
      "inputs": [
        {
          "internalType": "string",
          "name": "_name",
          "type": "string"
        },
        {
          "internalType": "string",
          "name": "_description",
          "type": "string"
        }
      ],
      "name": "addCredential",
      "outputs": [],
      "stateMutability": "nonpayable",
      "type": "function"
    },
    {
      "inputs": [
        {
          "internalType": "address",
          "name": "_user",
          "type": "address"
        }
      ],
      "name": "getCredentials",
      "outputs": [
        {
          "components": [
            {
              "internalType": "string",
              "name": "name",
              "type": "string"
            },
            {
              "internalType": "string",
              "name": "description",
              "type": "string"
            },
            {
              "internalType": "uint256",
              "name": "issuedAt",
              "type": "uint256"
            }
          ],
          "internalType": "struct CredentialsManager.Credential[]",
          "name": "",
          "type": "tuple[]"
        }
      ],
      "stateMutability": "view",
      "type": "function"
    }
  ],
  "bytecode": "0x608060405234801561001057600080fd5b50610b4a806100206000396000f3fe608060405234801561001057600080fd5b50600436106100365760003560e01c80634ee885d81461003b5780638427060814610057575b600080fd5b610055600480360381019061005091906104c2565b610087565b005b610071600480360381019061006c9190610598565b61019d565b60405161007e9190610776565b60405180910390f35b600060405180606001604052808481526020018381526020014281525090506000803373ffffffffffffffffffffffffffffffffffffffff1673ffffffffffffffffffffffffffffffffffffffff168152602001908152602001600020819080600181540180825580915050600190039060005260206000209060030201600090919091909150600082015181600001908161012391906109a4565b50602082015181600101908161013991906109a4565b506040820151816002015550503373ffffffffffffffffffffffffffffffffffffffff167f7020158e83ad0c20bf316227c36bc95f74ebc3581361ccb52d866ceaa788fe4684844260405161019093929190610acf565b60405180910390a2505050565b60606000808373ffffffffffffffffffffffffffffffffffffffff1673ffffffffffffffffffffffffffffffffffffffff168152602001908152602001600020805480602002602001604051908101604052809291908181526020016000905b8282101561035d5783829060005260206000209060030201604051806060016040529081600082018054610230906107c7565b80601f016020809104026020016040519081016040528092919081815260200182805461025c906107c7565b80156102a95780601f1061027e576101008083540402835291602001916102a9565b820191906000526020600020905b81548152906001019060200180831161028c57829003601f168201915b505050505081526020016001820180546102c2906107c7565b80601f01602080910402602001604051908101604052809291908181526020018280546102ee906107c7565b801561033b5780601f106103105761010080835404028352916020019161033b565b820191906000526020600020905b81548152906001019060200180831161031e57829003601f168201915b50505050508152602001600282015481525050815260200190600101906101fd565b505050509050919050565b6000604051905090565b600080fd5b600080fd5b600080fd5b600080fd5b6000601f19601f8301169050919050565b7f4e487b7100000000000000000000000000000000000000000000000000000000600052604160045260246000fd5b6103cf82610386565b810181811067ffffffffffffffff821117156103ee576103ed610397565b5b80604052505050565b6000610401610368565b905061040d82826103c6565b919050565b600067ffffffffffffffff82111561042d5761042c610397565b5b61043682610386565b9050602081019050919050565b82818337600083830152505050565b600061046561046084610412565b6103f7565b90508281526020810184848401111561048157610480610381565b5b61048c848285610443565b509392505050565b600082601f8301126104a9576104a861037c565b5b81356104b9848260208601610452565b91505092915050565b600080604083850312156104d9576104d8610372565b5b600083013567ffffffffffffffff8111156104f7576104f6610377565b5b61050385828601610494565b925050602083013567ffffffffffffffff81111561052457610523610377565b5b61053085828601610494565b9150509250929050565b600073ffffffffffffffffffffffffffffffffffffffff82169050919050565b60006105658261053a565b9050919050565b6105758161055a565b811461058057600080fd5b50565b6000813590506105928161056c565b92915050565b6000602082840312156105ae576105ad610372565b5b60006105bc84828501610583565b91505092915050565b600081519050919050565b600082825260208201905092915050565b6000819050602082019050919050565b600081519050919050565b600082825260208201905092915050565b60005b8381101561062b578082015181840152602081019050610610565b60008484015250505050565b6000610642826105f1565b61064c81856105fc565b935061065c81856020860161060d565b61066581610386565b840191505092915050565b6000819050919050565b61068381610670565b82525050565b600060608301600083015184820360008601526106a68282610637565b915050602083015184820360208601526106c08282610637565b91505060408301516106d5604086018261067a565b508091505092915050565b60006106ec8383610689565b905092915050565b6000602082019050919050565b600061070c826105c5565b61071681856105d0565b935083602082028501610728856105e1565b8060005b85811015610764578484038952815161074585826106e0565b9450610750836106f4565b925060208a0199505060018101905061072c565b50829750879550505050505092915050565b600060208201905081810360008301526107908184610701565b905092915050565b7f4e487b7100000000000000000000000000000000000000000000000000000000600052602260045260246000fd5b600060028204905060018216806107df57607f821691505b6020821081036107f2576107f1610798565b5b50919050565b60008190508160005260206000209050919050565b60006020601f8301049050919050565b600082821b905092915050565b60006008830261085a7fffffffffffffffffffffffffffffffffffffffffffffffffffffffffffffffff8261081d565b610864868361081d565b95508019841693508086168417925050509392505050565b6000819050919050565b60006108a161089c61089784610670565b61087c565b610670565b9050919050565b6000819050919050565b6108bb83610886565b6108cf6108c7826108a8565b84845461082a565b825550505050565b600090565b6108e46108d7565b6108ef8184846108b2565b505050565b5b81811015610913576109086000826108dc565b6001810190506108f5565b5050565b601f82111561095857610929816107f8565b6109328461080d565b81016020851015610941578190505b61095561094d8561080d565b8301826108f4565b50505b505050565b600082821c905092915050565b600061097b6000198460080261095d565b1980831691505092915050565b6000610994838361096a565b9150826002028217905092915050565b6109ad826105f1565b67ffffffffffffffff8111156109c6576109c5610397565b5b6109d082546107c7565b6109db828285610917565b600060209050601f831160018114610a0e57600084156109fc578287015190505b610a068582610988565b865550610a6e565b601f198416610a1c866107f8565b60005b82811015610a4457848901518255600182019150602085019450602081019050610a1f565b86831015610a615784890151610a5d601f89168261096a565b8355505b6001600288020188555050505b505050505050565b600082825260208201905092915050565b6000610a92826105f1565b610a9c8185610a76565b9350610aac81856020860161060d565b610ab581610386565b840191505092915050565b610ac981610670565b82525050565b60006060820190508181036000830152610ae98186610a87565b90508181036020830152610afd8185610a87565b9050610b0c6040830184610ac0565b94935050505056fea2646970667358221220ad8907cbd3e063abd07f91debeef5c7951f8fc28fc26ec48635c13c38093f1d964736f6c63430008110033",
  "linkReferences": {},
  "deployedLinkReferences": {}
}