{
  "_format": "hh-sol-artifact-1",
  "contractName": "LitAccessManager",
  "sourceName": "contracts/LitAccessManager.sol",
  "abi": [
    {
      "anonymous": false,
      "inputs": [
        {
          "indexed": true,
          "internalType": "address",
          "name": "user",
          "type": "address"
        },
        {
          "indexed": false,
          "internalType": "address",
          "name": "accessor",
          "type": "address"
        },
        {
          "indexed": false,
          "internalType": "uint256",
          "name": "expiration",
          "type": "uint256"
        }
      ],
      "name": "AccessGranted",
      "type": "event"
    },
    {
      "inputs": [
        {
          "internalType": "address",
          "name": "_accessor",
          "type": "address"
        },
        {
          "internalType": "uint256",
          "name": "_expiration",
          "type": "uint256"
        }
      ],
      "name": "grantAccess",
      "outputs": [],
      "stateMutability": "nonpayable",
      "type": "function"
    },
    {
      "inputs": [
        {
          "internalType": "address",
          "name": "_user",
          "type": "address"
        },
        {
          "internalType": "address",
          "name": "_accessor",
          "type": "address"
        }
      ],
      "name": "hasAccess",
      "outputs": [
        {
          "internalType": "bool",
          "name": "",
          "type": "bool"
        }
      ],
      "stateMutability": "view",
      "type": "function"
    },
    {
      "inputs": [
        {
          "internalType": "address",
          "name": "",
          "type": "address"
        },
        {
          "internalType": "uint256",
          "name": "",
          "type": "uint256"
        }
      ],
      "name": "userAccessRules",
      "outputs": [
        {
          "internalType": "address",
          "name": "accessor",
          "type": "address"
        },
        {
          "internalType": "uint256",
          "name": "expiration",
          "type": "uint256"
        }
      ],
      "stateMutability": "view",
      "type": "function"
    }
  ],
  "bytecode": "0x608060405234801561001057600080fd5b5061067b806100206000396000f3fe608060405234801561001057600080fd5b50600436106100415760003560e01c80631709ef07146100465780637bd366f0146100765780639df89256146100a7575b600080fd5b610060600480360381019061005b919061046c565b6100c3565b60405161006d91906104c7565b60405180910390f35b610090600480360381019061008b9190610518565b61026f565b60405161009e929190610576565b60405180910390f35b6100c160048036038101906100bc9190610518565b6102d0565b005b6000806000808573ffffffffffffffffffffffffffffffffffffffff1673ffffffffffffffffffffffffffffffffffffffff168152602001908152602001600020805480602002602001604051908101604052809291908181526020016000905b828210156101b657838290600052602060002090600202016040518060400160405290816000820160009054906101000a900473ffffffffffffffffffffffffffffffffffffffff1673ffffffffffffffffffffffffffffffffffffffff1673ffffffffffffffffffffffffffffffffffffffff16815260200160018201548152505081526020019060010190610124565b50505050905060005b8151811015610262578373ffffffffffffffffffffffffffffffffffffffff168282815181106101f2576101f161059f565b5b60200260200101516000015173ffffffffffffffffffffffffffffffffffffffff1614801561023f575081818151811061022f5761022e61059f565b5b6020026020010151602001514211155b1561024f57600192505050610269565b808061025a906105fd565b9150506101bf565b5060009150505b92915050565b6000602052816000526040600020818154811061028b57600080fd5b9060005260206000209060020201600091509150508060000160009054906101000a900473ffffffffffffffffffffffffffffffffffffffff16908060010154905082565b6000803373ffffffffffffffffffffffffffffffffffffffff1673ffffffffffffffffffffffffffffffffffffffff16815260200190815260200160002060405180604001604052808473ffffffffffffffffffffffffffffffffffffffff16815260200183815250908060018154018082558091505060019003906000526020600020906002020160009091909190915060008201518160000160006101000a81548173ffffffffffffffffffffffffffffffffffffffff021916908373ffffffffffffffffffffffffffffffffffffffff1602179055506020820151816001015550503373ffffffffffffffffffffffffffffffffffffffff167f65d0cc1e52d49938ca4ad9f423c79c1b84d914b9a683fbc5d3f93ac3cc5635f583836040516103fd929190610576565b60405180910390a25050565b600080fd5b600073ffffffffffffffffffffffffffffffffffffffff82169050919050565b60006104398261040e565b9050919050565b6104498161042e565b811461045457600080fd5b50565b60008135905061046681610440565b92915050565b6000806040838503121561048357610482610409565b5b600061049185828601610457565b92505060206104a285828601610457565b9150509250929050565b60008115159050919050565b6104c1816104ac565b82525050565b60006020820190506104dc60008301846104b8565b92915050565b6000819050919050565b6104f5816104e2565b811461050057600080fd5b50565b600081359050610512816104ec565b92915050565b6000806040838503121561052f5761052e610409565b5b600061053d85828601610457565b925050602061054e85828601610503565b9150509250929050565b6105618161042e565b82525050565b610570816104e2565b82525050565b600060408201905061058b6000830185610558565b6105986020830184610567565b9392505050565b7f4e487b7100000000000000000000000000000000000000000000000000000000600052603260045260246000fd5b7f4e487b7100000000000000000000000000000000000000000000000000000000600052601160045260246000fd5b6000610608826104e2565b91507fffffffffffffffffffffffffffffffffffffffffffffffffffffffffffffffff820361063a576106396105ce565b5b60018201905091905056fea264697066735822122031473914240a64f327b25d09c56c6dcd35a4240adfa89f031ab9862eb443be8964736f6c63430008110033",
  "linkReferences": {},
  "deployedLinkReferences": {}
}