{
  "_format": "hh-sol-artifact-1",
  "contractName": "CrossChainCredentialManager",
  "sourceName": "contracts/CrossChainCredentialManager.sol",
  "abi": [
    {
      "anonymous": false,
      "inputs": [
        {
          "indexed": true,
          "internalType": "address",
          "name": "user",
          "type": "address"
        },
        {
          "indexed": false,
          "internalType": "string",
          "name": "data",
          "type": "string"
        },
        {
          "indexed": false,
          "internalType": "address",
          "name": "issuer",
          "type": "address"
        }
      ],
      "name": "CredentialAdded",
      "type": "event"
    },
    {
      "anonymous": false,
      "inputs": [
        {
          "indexed": true,
          "internalType": "address",
          "name": "user",
          "type": "address"
        },
        {
          "indexed": false,
          "internalType": "uint256",
          "name": "credentialId",
          "type": "uint256"
        },
        {
          "indexed": false,
          "internalType": "string",
          "name": "targetChain",
          "type": "string"
        }
      ],
      "name": "CredentialBridged",
      "type": "event"
    },
    {
      "inputs": [
        {
          "internalType": "string",
          "name": "_data",
          "type": "string"
        }
      ],
      "name": "addCredential",
      "outputs": [],
      "stateMutability": "nonpayable",
      "type": "function"
    },
    {
      "inputs": [
        {
          "internalType": "uint256",
          "name": "_credentialId",
          "type": "uint256"
        },
        {
          "internalType": "string",
          "name": "_targetChain",
          "type": "string"
        }
      ],
      "name": "bridgeCredential",
      "outputs": [],
      "stateMutability": "nonpayable",
      "type": "function"
    },
    {
      "inputs": [
        {
          "internalType": "address",
          "name": "",
          "type": "address"
        },
        {
          "internalType": "uint256",
          "name": "",
          "type": "uint256"
        }
      ],
      "name": "userCredentials",
      "outputs": [
        {
          "internalType": "string",
          "name": "data",
          "type": "string"
        },
        {
          "internalType": "address",
          "name": "issuer",
          "type": "address"
        },
        {
          "internalType": "bool",
          "name": "isBridged",
          "type": "bool"
        }
      ],
      "stateMutability": "view",
      "type": "function"
    }
  ],
  "bytecode": "0x608060405234801561001057600080fd5b50610c48806100206000396000f3fe608060405234801561001057600080fd5b50600436106100415760003560e01c8063218e9fe414610046578063774e21ad146100625780639364ace91461007e575b600080fd5b610060600480360381019061005b91906105ca565b6100b0565b005b61007c60048036038101906100779190610649565b61021d565b005b61009860048036038101906100939190610703565b610374565b6040516100a7939291906107ec565b60405180910390f35b6000803373ffffffffffffffffffffffffffffffffffffffff1673ffffffffffffffffffffffffffffffffffffffff16815260200190815260200160002060405180606001604052808381526020013373ffffffffffffffffffffffffffffffffffffffff16815260200160001515815250908060018154018082558091505060019003906000526020600020906002020160009091909190915060008201518160000190816101609190610a36565b5060208201518160010160006101000a81548173ffffffffffffffffffffffffffffffffffffffff021916908373ffffffffffffffffffffffffffffffffffffffff16021790555060408201518160010160146101000a81548160ff02191690831515021790555050503373ffffffffffffffffffffffffffffffffffffffff167f8a8a53c55745f78f231b4756117c9acd224e6bf366b4ded2eb3509e77dee1f638233604051610212929190610b08565b60405180910390a250565b6000803373ffffffffffffffffffffffffffffffffffffffff1673ffffffffffffffffffffffffffffffffffffffff1681526020019081526020016000208054905082106102a0576040517f08c379a000000000000000000000000000000000000000000000000000000000815260040161029790610b84565b60405180910390fd5b60008060003373ffffffffffffffffffffffffffffffffffffffff1673ffffffffffffffffffffffffffffffffffffffff16815260200190815260200160002083815481106102f2576102f1610ba4565b5b9060005260206000209060020201905060018160010160146101000a81548160ff0219169083151502179055503373ffffffffffffffffffffffffffffffffffffffff167f27e935ec714956ad9adf0a3c5a726214b4e8644bcee1d97bc616f81e579e2b038484604051610367929190610be2565b60405180910390a2505050565b6000602052816000526040600020818154811061039057600080fd5b9060005260206000209060020201600091509150508060000180546103b490610859565b80601f01602080910402602001604051908101604052809291908181526020018280546103e090610859565b801561042d5780601f106104025761010080835404028352916020019161042d565b820191906000526020600020905b81548152906001019060200180831161041057829003601f168201915b5050505050908060010160009054906101000a900473ffffffffffffffffffffffffffffffffffffffff16908060010160149054906101000a900460ff16905083565b6000604051905090565b600080fd5b600080fd5b600080fd5b600080fd5b6000601f19601f8301169050919050565b7f4e487b7100000000000000000000000000000000000000000000000000000000600052604160045260246000fd5b6104d78261048e565b810181811067ffffffffffffffff821117156104f6576104f561049f565b5b80604052505050565b6000610509610470565b905061051582826104ce565b919050565b600067ffffffffffffffff8211156105355761053461049f565b5b61053e8261048e565b9050602081019050919050565b82818337600083830152505050565b600061056d6105688461051a565b6104ff565b90508281526020810184848401111561058957610588610489565b5b61059484828561054b565b509392505050565b600082601f8301126105b1576105b0610484565b5b81356105c184826020860161055a565b91505092915050565b6000602082840312156105e0576105df61047a565b5b600082013567ffffffffffffffff8111156105fe576105fd61047f565b5b61060a8482850161059c565b91505092915050565b6000819050919050565b61062681610613565b811461063157600080fd5b50565b6000813590506106438161061d565b92915050565b600080604083850312156106605761065f61047a565b5b600061066e85828601610634565b925050602083013567ffffffffffffffff81111561068f5761068e61047f565b5b61069b8582860161059c565b9150509250929050565b600073ffffffffffffffffffffffffffffffffffffffff82169050919050565b60006106d0826106a5565b9050919050565b6106e0816106c5565b81146106eb57600080fd5b50565b6000813590506106fd816106d7565b92915050565b6000806040838503121561071a5761071961047a565b5b6000610728858286016106ee565b925050602061073985828601610634565b9150509250929050565b600081519050919050565b600082825260208201905092915050565b60005b8381101561077d578082015181840152602081019050610762565b60008484015250505050565b600061079482610743565b61079e818561074e565b93506107ae81856020860161075f565b6107b78161048e565b840191505092915050565b6107cb816106c5565b82525050565b60008115159050919050565b6107e6816107d1565b82525050565b600060608201905081810360008301526108068186610789565b905061081560208301856107c2565b61082260408301846107dd565b949350505050565b7f4e487b7100000000000000000000000000000000000000000000000000000000600052602260045260246000fd5b6000600282049050600182168061087157607f821691505b6020821081036108845761088361082a565b5b50919050565b60008190508160005260206000209050919050565b60006020601f8301049050919050565b600082821b905092915050565b6000600883026108ec7fffffffffffffffffffffffffffffffffffffffffffffffffffffffffffffffff826108af565b6108f686836108af565b95508019841693508086168417925050509392505050565b6000819050919050565b600061093361092e61092984610613565b61090e565b610613565b9050919050565b6000819050919050565b61094d83610918565b6109616109598261093a565b8484546108bc565b825550505050565b600090565b610976610969565b610981818484610944565b505050565b5b818110156109a55761099a60008261096e565b600181019050610987565b5050565b601f8211156109ea576109bb8161088a565b6109c48461089f565b810160208510156109d3578190505b6109e76109df8561089f565b830182610986565b50505b505050565b600082821c905092915050565b6000610a0d600019846008026109ef565b1980831691505092915050565b6000610a2683836109fc565b9150826002028217905092915050565b610a3f82610743565b67ffffffffffffffff811115610a5857610a5761049f565b5b610a628254610859565b610a6d8282856109a9565b600060209050601f831160018114610aa05760008415610a8e578287015190505b610a988582610a1a565b865550610b00565b601f198416610aae8661088a565b60005b82811015610ad657848901518255600182019150602085019450602081019050610ab1565b86831015610af35784890151610aef601f8916826109fc565b8355505b6001600288020188555050505b505050505050565b60006040820190508181036000830152610b228185610789565b9050610b3160208301846107c2565b9392505050565b7f496e76616c696420494400000000000000000000000000000000000000000000600082015250565b6000610b6e600a8361074e565b9150610b7982610b38565b602082019050919050565b60006020820190508181036000830152610b9d81610b61565b9050919050565b7f4e487b7100000000000000000000000000000000000000000000000000000000600052603260045260246000fd5b610bdc81610613565b82525050565b6000604082019050610bf76000830185610bd3565b8181036020830152610c098184610789565b9050939250505056fea26469706673582212203ec80664a3cb3a606dee230044d4686c0fafd5192f58fd4b7478af9d94864ebf64736f6c63430008110033",
  "linkReferences": {},
  "deployedLinkReferences": {}
}