{
  "_format": "hh-sol-artifact-1",
  "contractName": "BaseCredentialManager",
  "sourceName": "contracts/BaseCredentialManager.sol",
  "abi": [
    {
      "anonymous": false,
      "inputs": [
        {
          "indexed": true,
          "internalType": "address",
          "name": "user",
          "type": "address"
        },
        {
          "indexed": false,
          "internalType": "string",
          "name": "name",
          "type": "string"
        },
        {
          "indexed": false,
          "internalType": "address",
          "name": "issuer",
          "type": "address"
        }
      ],
      "name": "CredentialIssued",
      "type": "event"
    },
    {
      "anonymous": false,
      "inputs": [
        {
          "indexed": true,
          "internalType": "address",
          "name": "user",
          "type": "address"
        },
        {
          "indexed": false,
          "internalType": "uint256",
          "name": "amount",
          "type": "uint256"
        }
      ],
      "name": "IncentiveClaimed",
      "type": "event"
    },
    {
      "inputs": [],
      "name": "claimIncentives",
      "outputs": [],
      "stateMutability": "nonpayable",
      "type": "function"
    },
    {
      "inputs": [
        {
          "internalType": "address",
          "name": "_user",
          "type": "address"
        },
        {
          "internalType": "string",
          "name": "_name",
          "type": "string"
        },
        {
          "internalType": "string",
          "name": "_description",
          "type": "string"
        }
      ],
      "name": "issueCredential",
      "outputs": [],
      "stateMutability": "nonpayable",
      "type": "function"
    },
    {
      "inputs": [
        {
          "internalType": "address",
          "name": "",
          "type": "address"
        },
        {
          "internalType": "uint256",
          "name": "",
          "type": "uint256"
        }
      ],
      "name": "userCredentials",
      "outputs": [
        {
          "internalType": "string",
          "name": "name",
          "type": "string"
        },
        {
          "internalType": "string",
          "name": "description",
          "type": "string"
        },
        {
          "internalType": "uint256",
          "name": "issuedAt",
          "type": "uint256"
        },
        {
          "internalType": "address",
          "name": "issuer",
          "type": "address"
        },
        {
          "internalType": "bool",
          "name": "isVerified",
          "type": "bool"
        }
      ],
      "stateMutability": "view",
      "type": "function"
    },
    {
      "inputs": [
        {
          "internalType": "address",
          "name": "",
          "type": "address"
        }
      ],
      "name": "userIncentives",
      "outputs": [
        {
          "internalType": "uint256",
          "name": "",
          "type": "uint256"
        }
      ],
      "stateMutability": "view",
      "type": "function"
    },
    {
      "inputs": [
        {
          "internalType": "address",
          "name": "_user",
          "type": "address"
        },
        {
          "internalType": "uint256",
          "name": "_credentialId",
          "type": "uint256"
        }
      ],
      "name": "verifyCredential",
      "outputs": [],
      "stateMutability": "nonpayable",
      "type": "function"
    },
    {
      "stateMutability": "payable",
      "type": "receive"
    }
  ],
  "bytecode": "0x608060405234801561001057600080fd5b5061110c806100206000396000f3fe60806040526004361061004e5760003560e01c80631330b61b1461005a578063772403cb1461008357806382229f5e1461009a5780639364ace9146100d75780639f4ed4fb1461011857610055565b3661005557005b600080fd5b34801561006657600080fd5b50610081600480360381019061007c9190610880565b610141565b005b34801561008f57600080fd5b506100986102da565b005b3480156100a657600080fd5b506100c160048036038101906100bc91906108c0565b61043e565b6040516100ce91906108fc565b60405180910390f35b3480156100e357600080fd5b506100fe60048036038101906100f99190610880565b610456565b60405161010f9594939291906109d1565b60405180910390f35b34801561012457600080fd5b5061013f600480360381019061013a9190610b67565b6105e6565b005b6000808373ffffffffffffffffffffffffffffffffffffffff1673ffffffffffffffffffffffffffffffffffffffff1681526020019081526020016000208054905081106101c4576040517f08c379a00000000000000000000000000000000000000000000000000000000081526004016101bb90610c3e565b60405180910390fd5b60008060008473ffffffffffffffffffffffffffffffffffffffff1673ffffffffffffffffffffffffffffffffffffffff168152602001908152602001600020828154811061021657610215610c5e565b5b906000526020600020906004020190503373ffffffffffffffffffffffffffffffffffffffff168160030160009054906101000a900473ffffffffffffffffffffffffffffffffffffffff1673ffffffffffffffffffffffffffffffffffffffff16146102b8576040517f08c379a00000000000000000000000000000000000000000000000000000000081526004016102af90610cd9565b60405180910390fd5b60018160030160146101000a81548160ff021916908315150217905550505050565b6000600160003373ffffffffffffffffffffffffffffffffffffffff1673ffffffffffffffffffffffffffffffffffffffff16815260200190815260200160002054905060008111610361576040517f08c379a000000000000000000000000000000000000000000000000000000000815260040161035890610d45565b60405180910390fd5b6000600160003373ffffffffffffffffffffffffffffffffffffffff1673ffffffffffffffffffffffffffffffffffffffff168152602001908152602001600020819055503373ffffffffffffffffffffffffffffffffffffffff166108fc829081150290604051600060405180830381858888f193505050501580156103ec573d6000803e3d6000fd5b503373ffffffffffffffffffffffffffffffffffffffff167ff383c0546bb6669c3250601085779bc0b63da3e0fb8e4881605db6fb1a9d4e828260405161043391906108fc565b60405180910390a250565b60016020528060005260406000206000915090505481565b6000602052816000526040600020818154811061047257600080fd5b90600052602060002090600402016000915091505080600001805461049690610d94565b80601f01602080910402602001604051908101604052809291908181526020018280546104c290610d94565b801561050f5780601f106104e45761010080835404028352916020019161050f565b820191906000526020600020905b8154815290600101906020018083116104f257829003601f168201915b50505050509080600101805461052490610d94565b80601f016020809104026020016040519081016040528092919081815260200182805461055090610d94565b801561059d5780601f106105725761010080835404028352916020019161059d565b820191906000526020600020905b81548152906001019060200180831161058057829003601f168201915b5050505050908060020154908060030160009054906101000a900473ffffffffffffffffffffffffffffffffffffffff16908060030160149054906101000a900460ff16905085565b6000808473ffffffffffffffffffffffffffffffffffffffff1673ffffffffffffffffffffffffffffffffffffffff1681526020019081526020016000206040518060a001604052808481526020018381526020014281526020013373ffffffffffffffffffffffffffffffffffffffff16815260200160001515815250908060018154018082558091505060019003906000526020600020906004020160009091909190915060008201518160000190816106a29190610f71565b5060208201518160010190816106b89190610f71565b506040820151816002015560608201518160030160006101000a81548173ffffffffffffffffffffffffffffffffffffffff021916908373ffffffffffffffffffffffffffffffffffffffff16021790555060808201518160030160146101000a81548160ff0219169083151502179055505050600a600160008573ffffffffffffffffffffffffffffffffffffffff1673ffffffffffffffffffffffffffffffffffffffff168152602001908152602001600020600082825461077c9190611072565b925050819055508273ffffffffffffffffffffffffffffffffffffffff167fedf9ccba95eb9797906268b5ee6306453c4ca722fd09e14c50a7b15b77d3d9b283336040516107cb9291906110a6565b60405180910390a2505050565b6000604051905090565b600080fd5b600080fd5b600073ffffffffffffffffffffffffffffffffffffffff82169050919050565b6000610817826107ec565b9050919050565b6108278161080c565b811461083257600080fd5b50565b6000813590506108448161081e565b92915050565b6000819050919050565b61085d8161084a565b811461086857600080fd5b50565b60008135905061087a81610854565b92915050565b60008060408385031215610897576108966107e2565b5b60006108a585828601610835565b92505060206108b68582860161086b565b9150509250929050565b6000602082840312156108d6576108d56107e2565b5b60006108e484828501610835565b91505092915050565b6108f68161084a565b82525050565b600060208201905061091160008301846108ed565b92915050565b600081519050919050565b600082825260208201905092915050565b60005b83811015610951578082015181840152602081019050610936565b60008484015250505050565b6000601f19601f8301169050919050565b600061097982610917565b6109838185610922565b9350610993818560208601610933565b61099c8161095d565b840191505092915050565b6109b08161080c565b82525050565b60008115159050919050565b6109cb816109b6565b82525050565b600060a08201905081810360008301526109eb818861096e565b905081810360208301526109ff818761096e565b9050610a0e60408301866108ed565b610a1b60608301856109a7565b610a2860808301846109c2565b9695505050505050565b600080fd5b600080fd5b7f4e487b7100000000000000000000000000000000000000000000000000000000600052604160045260246000fd5b610a748261095d565b810181811067ffffffffffffffff82111715610a9357610a92610a3c565b5b80604052505050565b6000610aa66107d8565b9050610ab28282610a6b565b919050565b600067ffffffffffffffff821115610ad257610ad1610a3c565b5b610adb8261095d565b9050602081019050919050565b82818337600083830152505050565b6000610b0a610b0584610ab7565b610a9c565b905082815260208101848484011115610b2657610b25610a37565b5b610b31848285610ae8565b509392505050565b600082601f830112610b4e57610b4d610a32565b5b8135610b5e848260208601610af7565b91505092915050565b600080600060608486031215610b8057610b7f6107e2565b5b6000610b8e86828701610835565b935050602084013567ffffffffffffffff811115610baf57610bae6107e7565b5b610bbb86828701610b39565b925050604084013567ffffffffffffffff811115610bdc57610bdb6107e7565b5b610be886828701610b39565b9150509250925092565b7f496e76616c696420494400000000000000000000000000000000000000000000600082015250565b6000610c28600a83610922565b9150610c3382610bf2565b602082019050919050565b60006020820190508181036000830152610c5781610c1b565b9050919050565b7f4e487b7100000000000000000000000000000000000000000000000000000000600052603260045260246000fd5b7f4f6e6c79206973737565722063616e2076657269667900000000000000000000600082015250565b6000610cc3601683610922565b9150610cce82610c8d565b602082019050919050565b60006020820190508181036000830152610cf281610cb6565b9050919050565b7f4e6f20696e63656e746976657320746f20636c61696d00000000000000000000600082015250565b6000610d2f601683610922565b9150610d3a82610cf9565b602082019050919050565b60006020820190508181036000830152610d5e81610d22565b9050919050565b7f4e487b7100000000000000000000000000000000000000000000000000000000600052602260045260246000fd5b60006002820490506001821680610dac57607f821691505b602082108103610dbf57610dbe610d65565b5b50919050565b60008190508160005260206000209050919050565b60006020601f8301049050919050565b600082821b905092915050565b600060088302610e277fffffffffffffffffffffffffffffffffffffffffffffffffffffffffffffffff82610dea565b610e318683610dea565b95508019841693508086168417925050509392505050565b6000819050919050565b6000610e6e610e69610e648461084a565b610e49565b61084a565b9050919050565b6000819050919050565b610e8883610e53565b610e9c610e9482610e75565b848454610df7565b825550505050565b600090565b610eb1610ea4565b610ebc818484610e7f565b505050565b5b81811015610ee057610ed5600082610ea9565b600181019050610ec2565b5050565b601f821115610f2557610ef681610dc5565b610eff84610dda565b81016020851015610f0e578190505b610f22610f1a85610dda565b830182610ec1565b50505b505050565b600082821c905092915050565b6000610f4860001984600802610f2a565b1980831691505092915050565b6000610f618383610f37565b9150826002028217905092915050565b610f7a82610917565b67ffffffffffffffff811115610f9357610f92610a3c565b5b610f9d8254610d94565b610fa8828285610ee4565b600060209050601f831160018114610fdb5760008415610fc9578287015190505b610fd38582610f55565b86555061103b565b601f198416610fe986610dc5565b60005b8281101561101157848901518255600182019150602085019450602081019050610fec565b8683101561102e578489015161102a601f891682610f37565b8355505b6001600288020188555050505b505050505050565b7f4e487b7100000000000000000000000000000000000000000000000000000000600052601160045260246000fd5b600061107d8261084a565b91506110888361084a565b92508282019050808211156110a05761109f611043565b5b92915050565b600060408201905081810360008301526110c0818561096e565b90506110cf60208301846109a7565b939250505056fea2646970667358221220ac1920e88ee7e102086e8b2b1a89aa9d1a81e7b8b316fa6a6dde53f6f8c114dd64736f6c63430008110033",
  "linkReferences": {},
  "deployedLinkReferences": {}
}