{
  "_format": "hh-sol-artifact-1",
  "contractName": "ZKCredentialVerifier",
  "sourceName": "contracts/ZKCredentialVerifier.sol",
  "abi": [
    {
      "anonymous": false,
      "inputs": [
        {
          "indexed": true,
          "internalType": "address",
          "name": "user",
          "type": "address"
        },
        {
          "indexed": false,
          "internalType": "bytes32",
          "name": "zkProof",
          "type": "bytes32"
        },
        {
          "indexed": false,
          "internalType": "address",
          "name": "issuer",
          "type": "address"
        }
      ],
      "name": "CredentialAdded",
      "type": "event"
    },
    {
      "anonymous": false,
      "inputs": [
        {
          "indexed": true,
          "internalType": "address",
          "name": "user",
          "type": "address"
        },
        {
          "indexed": false,
          "internalType": "uint256",
          "name": "credentialId",
          "type": "uint256"
        }
      ],
      "name": "CredentialVerified",
      "type": "event"
    },
    {
      "inputs": [
        {
          "internalType": "bytes32",
          "name": "_zkProof",
          "type": "bytes32"
        }
      ],
      "name": "addCredential",
      "outputs": [],
      "stateMutability": "nonpayable",
      "type": "function"
    },
    {
      "inputs": [
        {
          "internalType": "address",
          "name": "",
          "type": "address"
        },
        {
          "internalType": "uint256",
          "name": "",
          "type": "uint256"
        }
      ],
      "name": "userCredentials",
      "outputs": [
        {
          "internalType": "bytes32",
          "name": "zkProof",
          "type": "bytes32"
        },
        {
          "internalType": "address",
          "name": "issuer",
          "type": "address"
        },
        {
          "internalType": "bool",
          "name": "isVerified",
          "type": "bool"
        }
      ],
      "stateMutability": "view",
      "type": "function"
    },
    {
      "inputs": [
        {
          "internalType": "address",
          "name": "_user",
          "type": "address"
        },
        {
          "internalType": "uint256",
          "name": "_credentialId",
          "type": "uint256"
        }
      ],
      "name": "verifyCredential",
      "outputs": [],
      "stateMutability": "nonpayable",
      "type": "function"
    }
  ],
  "bytecode": "0x608060405234801561001057600080fd5b506106bb806100206000396000f3fe608060405234801561001057600080fd5b50600436106100415760003560e01c80631330b61b146100465780631fd845b1146100625780639364ace91461007e575b600080fd5b610060600480360381019061005b9190610473565b6100b0565b005b61007c600480360381019061007791906104e9565b610205565b005b61009860048036038101906100939190610473565b610366565b6040516100a79392919061054f565b60405180910390f35b6000808373ffffffffffffffffffffffffffffffffffffffff1673ffffffffffffffffffffffffffffffffffffffff168152602001908152602001600020805490508110610133576040517f08c379a000000000000000000000000000000000000000000000000000000000815260040161012a906105e3565b60405180910390fd5b60008060008473ffffffffffffffffffffffffffffffffffffffff1673ffffffffffffffffffffffffffffffffffffffff168152602001908152602001600020828154811061018557610184610603565b5b9060005260206000209060020201905060018160010160146101000a81548160ff0219169083151502179055508273ffffffffffffffffffffffffffffffffffffffff167f76fecaea507f64564a4e3139bdfcd27cede2a8b73f7d45cd830a984bea14d57e836040516101f89190610641565b60405180910390a2505050565b6000803373ffffffffffffffffffffffffffffffffffffffff1673ffffffffffffffffffffffffffffffffffffffff16815260200190815260200160002060405180606001604052808381526020013373ffffffffffffffffffffffffffffffffffffffff1681526020016000151581525090806001815401808255809150506001900390600052602060002090600202016000909190919091506000820151816000015560208201518160010160006101000a81548173ffffffffffffffffffffffffffffffffffffffff021916908373ffffffffffffffffffffffffffffffffffffffff16021790555060408201518160010160146101000a81548160ff02191690831515021790555050503373ffffffffffffffffffffffffffffffffffffffff167f9327f7e9a1e2f4770b1c14bf7934fe5320d244024984da0adba2ae27559a5741823360405161035b92919061065c565b60405180910390a250565b6000602052816000526040600020818154811061038257600080fd5b9060005260206000209060020201600091509150508060000154908060010160009054906101000a900473ffffffffffffffffffffffffffffffffffffffff16908060010160149054906101000a900460ff16905083565b600080fd5b600073ffffffffffffffffffffffffffffffffffffffff82169050919050565b600061040a826103df565b9050919050565b61041a816103ff565b811461042557600080fd5b50565b60008135905061043781610411565b92915050565b6000819050919050565b6104508161043d565b811461045b57600080fd5b50565b60008135905061046d81610447565b92915050565b6000806040838503121561048a576104896103da565b5b600061049885828601610428565b92505060206104a98582860161045e565b9150509250929050565b6000819050919050565b6104c6816104b3565b81146104d157600080fd5b50565b6000813590506104e3816104bd565b92915050565b6000602082840312156104ff576104fe6103da565b5b600061050d848285016104d4565b91505092915050565b61051f816104b3565b82525050565b61052e816103ff565b82525050565b60008115159050919050565b61054981610534565b82525050565b60006060820190506105646000830186610516565b6105716020830185610525565b61057e6040830184610540565b949350505050565b600082825260208201905092915050565b7f496e76616c696420494400000000000000000000000000000000000000000000600082015250565b60006105cd600a83610586565b91506105d882610597565b602082019050919050565b600060208201905081810360008301526105fc816105c0565b9050919050565b7f4e487b7100000000000000000000000000000000000000000000000000000000600052603260045260246000fd5b61063b8161043d565b82525050565b60006020820190506106566000830184610632565b92915050565b60006040820190506106716000830185610516565b61067e6020830184610525565b939250505056fea2646970667358221220921d7ba86cf1ccb1f9a37130f89791f9892de864806f1eb29ab6e8f311bef42d64736f6c63430008110033",
  "linkReferences": {},
  "deployedLinkReferences": {}
}