{
  "_format": "hh-sol-artifact-1",
  "contractName": "EASCredentialAttester",
  "sourceName": "contracts/EASCredentialAttester.sol",
  "abi": [
    {
      "anonymous": false,
      "inputs": [
        {
          "indexed": true,
          "internalType": "address",
          "name": "user",
          "type": "address"
        },
        {
          "indexed": false,
          "internalType": "string",
          "name": "data",
          "type": "string"
        },
        {
          "indexed": false,
          "internalType": "address",
          "name": "attester",
          "type": "address"
        }
      ],
      "name": "AttestationIssued",
      "type": "event"
    },
    {
      "inputs": [
        {
          "internalType": "address",
          "name": "_user",
          "type": "address"
        },
        {
          "internalType": "string",
          "name": "_data",
          "type": "string"
        }
      ],
      "name": "issueAttestation",
      "outputs": [],
      "stateMutability": "nonpayable",
      "type": "function"
    },
    {
      "inputs": [
        {
          "internalType": "address",
          "name": "",
          "type": "address"
        },
        {
          "internalType": "uint256",
          "name": "",
          "type": "uint256"
        }
      ],
      "name": "userAttestations",
      "outputs": [
        {
          "internalType": "string",
          "name": "data",
          "type": "string"
        },
        {
          "internalType": "address",
          "name": "attester",
          "type": "address"
        },
        {
          "internalType": "uint256",
          "name": "issuedAt",
          "type": "uint256"
        }
      ],
      "stateMutability": "view",
      "type": "function"
    }
  ],
  "bytecode": "0x608060405234801561001057600080fd5b50610976806100206000396000f3fe608060405234801561001057600080fd5b50600436106100365760003560e01c80631cf2bbc91461003b578063939be7dc1461006d575b600080fd5b61005560048036038101906100509190610375565b610089565b60405161006493929190610463565b60405180910390f35b610087600480360381019061008291906105d6565b610178565b005b600060205281600052604060002081815481106100a557600080fd5b9060005260206000209060030201600091509150508060000180546100c990610661565b80601f01602080910402602001604051908101604052809291908181526020018280546100f590610661565b80156101425780601f1061011757610100808354040283529160200191610142565b820191906000526020600020905b81548152906001019060200180831161012557829003601f168201915b5050505050908060010160009054906101000a900473ffffffffffffffffffffffffffffffffffffffff16908060020154905083565b6000808373ffffffffffffffffffffffffffffffffffffffff1673ffffffffffffffffffffffffffffffffffffffff16815260200190815260200160002060405180606001604052808381526020013373ffffffffffffffffffffffffffffffffffffffff1681526020014281525090806001815401808255809150506001900390600052602060002090600302016000909190919091506000820151816000019081610225919061083e565b5060208201518160010160006101000a81548173ffffffffffffffffffffffffffffffffffffffff021916908373ffffffffffffffffffffffffffffffffffffffff1602179055506040820151816002015550508173ffffffffffffffffffffffffffffffffffffffff167f6b2d7fa986a8066c850b7a44cbb598955841bb822177c767b1fcaa89e465fb8f82336040516102c1929190610910565b60405180910390a25050565b6000604051905090565b600080fd5b600080fd5b600073ffffffffffffffffffffffffffffffffffffffff82169050919050565b600061030c826102e1565b9050919050565b61031c81610301565b811461032757600080fd5b50565b60008135905061033981610313565b92915050565b6000819050919050565b6103528161033f565b811461035d57600080fd5b50565b60008135905061036f81610349565b92915050565b6000806040838503121561038c5761038b6102d7565b5b600061039a8582860161032a565b92505060206103ab85828601610360565b9150509250929050565b600081519050919050565b600082825260208201905092915050565b60005b838110156103ef5780820151818401526020810190506103d4565b60008484015250505050565b6000601f19601f8301169050919050565b6000610417826103b5565b61042181856103c0565b93506104318185602086016103d1565b61043a816103fb565b840191505092915050565b61044e81610301565b82525050565b61045d8161033f565b82525050565b6000606082019050818103600083015261047d818661040c565b905061048c6020830185610445565b6104996040830184610454565b949350505050565b600080fd5b600080fd5b7f4e487b7100000000000000000000000000000000000000000000000000000000600052604160045260246000fd5b6104e3826103fb565b810181811067ffffffffffffffff82111715610502576105016104ab565b5b80604052505050565b60006105156102cd565b905061052182826104da565b919050565b600067ffffffffffffffff821115610541576105406104ab565b5b61054a826103fb565b9050602081019050919050565b82818337600083830152505050565b600061057961057484610526565b61050b565b905082815260208101848484011115610595576105946104a6565b5b6105a0848285610557565b509392505050565b600082601f8301126105bd576105bc6104a1565b5b81356105cd848260208601610566565b91505092915050565b600080604083850312156105ed576105ec6102d7565b5b60006105fb8582860161032a565b925050602083013567ffffffffffffffff81111561061c5761061b6102dc565b5b610628858286016105a8565b9150509250929050565b7f4e487b7100000000000000000000000000000000000000000000000000000000600052602260045260246000fd5b6000600282049050600182168061067957607f821691505b60208210810361068c5761068b610632565b5b50919050565b60008190508160005260206000209050919050565b60006020601f8301049050919050565b600082821b905092915050565b6000600883026106f47fffffffffffffffffffffffffffffffffffffffffffffffffffffffffffffffff826106b7565b6106fe86836106b7565b95508019841693508086168417925050509392505050565b6000819050919050565b600061073b6107366107318461033f565b610716565b61033f565b9050919050565b6000819050919050565b61075583610720565b61076961076182610742565b8484546106c4565b825550505050565b600090565b61077e610771565b61078981848461074c565b505050565b5b818110156107ad576107a2600082610776565b60018101905061078f565b5050565b601f8211156107f2576107c381610692565b6107cc846106a7565b810160208510156107db578190505b6107ef6107e7856106a7565b83018261078e565b50505b505050565b600082821c905092915050565b6000610815600019846008026107f7565b1980831691505092915050565b600061082e8383610804565b9150826002028217905092915050565b610847826103b5565b67ffffffffffffffff8111156108605761085f6104ab565b5b61086a8254610661565b6108758282856107b1565b600060209050601f8311600181146108a85760008415610896578287015190505b6108a08582610822565b865550610908565b601f1984166108b686610692565b60005b828110156108de578489015182556001820191506020850194506020810190506108b9565b868310156108fb57848901516108f7601f891682610804565b8355505b6001600288020188555050505b505050505050565b6000604082019050818103600083015261092a818561040c565b90506109396020830184610445565b939250505056fea264697066735822122060dc35cd7e53af60acd87e8a25b827ed3d58e90b024caa6fd80846eef96056cd64736f6c63430008110033",
  "linkReferences": {},
  "deployedLinkReferences": {}
}